{
  "_format": "hh-sol-artifact-1",
  "contractName": "WavePortal",
  "sourceName": "contracts/WavePortal.sol",
  "abi": [
    {
      "inputs": [],
      "stateMutability": "payable",
      "type": "constructor"
    },
    {
      "anonymous": false,
      "inputs": [
        {
          "indexed": true,
          "internalType": "address",
          "name": "from",
          "type": "address"
        },
        {
          "indexed": false,
          "internalType": "uint256",
          "name": "timestamp",
          "type": "uint256"
        },
        {
          "indexed": false,
          "internalType": "string",
          "name": "message",
          "type": "string"
        }
      ],
      "name": "NewWave",
      "type": "event"
    },
    {
      "inputs": [],
      "name": "getAllWaves",
      "outputs": [
        {
          "components": [
            {
              "internalType": "address",
              "name": "waver",
              "type": "address"
            },
            {
              "internalType": "string",
              "name": "message",
              "type": "string"
            },
            {
              "internalType": "uint256",
              "name": "timestamp",
              "type": "uint256"
            }
          ],
          "internalType": "struct WavePortal.Wave[]",
          "name": "",
          "type": "tuple[]"
        }
      ],
      "stateMutability": "view",
      "type": "function"
    },
    {
      "inputs": [],
      "name": "getTotalWaves",
      "outputs": [
        {
          "internalType": "uint256",
          "name": "",
          "type": "uint256"
        }
      ],
      "stateMutability": "view",
      "type": "function"
    },
    {
      "inputs": [
        {
          "internalType": "address",
          "name": "sender",
          "type": "address"
        }
      ],
      "name": "getTotalWavesBySender",
      "outputs": [
        {
          "internalType": "uint256",
          "name": "",
          "type": "uint256"
        }
      ],
      "stateMutability": "view",
      "type": "function"
    },
    {
      "inputs": [
        {
          "internalType": "address",
          "name": "",
          "type": "address"
        }
      ],
      "name": "lastWavedAt",
      "outputs": [
        {
          "internalType": "uint256",
          "name": "",
          "type": "uint256"
        }
      ],
      "stateMutability": "view",
      "type": "function"
    },
    {
      "inputs": [
        {
          "internalType": "address",
          "name": "",
          "type": "address"
        }
      ],
      "name": "senderWavesCounter",
      "outputs": [
        {
          "internalType": "uint256",
          "name": "",
          "type": "uint256"
        }
      ],
      "stateMutability": "view",
      "type": "function"
    },
    {
      "inputs": [
        {
          "internalType": "string",
          "name": "_message",
          "type": "string"
        }
      ],
      "name": "wave",
      "outputs": [],
      "stateMutability": "nonpayable",
      "type": "function"
    }
  ],
  "bytecode": "0x60806040526200003360405180606001604052806025815260200162001826602591396200005b60201b620007d91760201c565b60644244620000439190620001a8565b6200004f919062000245565b600181905550620002ec565b620000fb8160405160240162000072919062000168565b6040516020818303038152906040527f41304fac000000000000000000000000000000000000000000000000000000007bffffffffffffffffffffffffffffffffffffffffffffffffffffffff19166020820180517bffffffffffffffffffffffffffffffffffffffffffffffffffffffff8381831617835250505050620000fe60201b60201c565b50565b60008151905060006a636f6e736f6c652e6c6f679050602083016000808483855afa5050505050565b600062000134826200018c565b62000140818562000197565b9350620001528185602086016200020f565b6200015d81620002db565b840191505092915050565b6000602082019050818103600083015262000184818462000127565b905092915050565b600081519050919050565b600082825260208201905092915050565b6000620001b58262000205565b9150620001c28362000205565b9250827fffffffffffffffffffffffffffffffffffffffffffffffffffffffffffffffff03821115620001fa57620001f96200027d565b5b828201905092915050565b6000819050919050565b60005b838110156200022f57808201518184015260208101905062000212565b838111156200023f576000848401525b50505050565b6000620002528262000205565b91506200025f8362000205565b925082620002725762000271620002ac565b5b828206905092915050565b7f4e487b7100000000000000000000000000000000000000000000000000000000600052601160045260246000fd5b7f4e487b7100000000000000000000000000000000000000000000000000000000600052601260045260246000fd5b6000601f19601f8301169050919050565b61152a80620002fc6000396000f3fe608060405234801561001057600080fd5b50600436106100625760003560e01c8063449d46c014610067578063478100b1146100835780639a2cdc08146100b3578063a42a4663146100d1578063bd43a90814610101578063d36b41091461011f575b600080fd5b610081600480360381019061007c9190610c5d565b61014f565b005b61009d60048036038101906100989190610c34565b610545565b6040516100aa919061105b565b60405180910390f35b6100bb61055d565b6040516100c8919061105b565b60405180910390f35b6100eb60048036038101906100e69190610c34565b6105a8565b6040516100f8919061105b565b60405180910390f35b6101096105c0565b6040516101169190610ec6565b60405180910390f35b61013960048036038101906101349190610c34565b610711565b604051610146919061105b565b60405180910390f35b4261012c600360003373ffffffffffffffffffffffffffffffffffffffff1673ffffffffffffffffffffffffffffffffffffffff1681526020019081526020016000205461019d919061116d565b106101dd576040517f08c379a00000000000000000000000000000000000000000000000000000000081526004016101d490610ffb565b60405180910390fd5b42600360003373ffffffffffffffffffffffffffffffffffffffff1673ffffffffffffffffffffffffffffffffffffffff168152602001908152602001600020819055506001600080828254610233919061116d565b92505081905550600460405180606001604052803373ffffffffffffffffffffffffffffffffffffffff16815260200183815260200142815250908060018154018082558091505060019003906000526020600020906003020160009091909190915060008201518160000160006101000a81548173ffffffffffffffffffffffffffffffffffffffff021916908373ffffffffffffffffffffffffffffffffffffffff16021790555060208201518160010190805190602001906102f9929190610b14565b5060408201518160020155505060646001544244610317919061116d565b610321919061116d565b61032b91906112ed565b6001819055506032600154116104775761037a6040518060400160405280600781526020017f257320776f6e210000000000000000000000000000000000000000000000000081525033610872565b6000655af3107a40009050478111156103c8576040517f08c379a00000000000000000000000000000000000000000000000000000000081526004016103bf9061101b565b60405180910390fd5b60003373ffffffffffffffffffffffffffffffffffffffff16826040516103ee90610eb1565b60006040518083038185875af1925050503d806000811461042b576040519150601f19603f3d011682016040523d82523d6000602084013e610430565b606091505b5050905080610474576040517f08c379a000000000000000000000000000000000000000000000000000000000815260040161046b9061103b565b60405180910390fd5b50505b61049d6040518060600160405280602881526020016114cd60289139338360015461090e565b3373ffffffffffffffffffffffffffffffffffffffff167f5f7e16dc676677766a70e9c5628aa6c54ddb8b6e5188e2ae1e1f17f1ffbea71642836040516104e5929190611076565b60405180910390a2600260003373ffffffffffffffffffffffffffffffffffffffff1673ffffffffffffffffffffffffffffffffffffffff168152602001908152602001600020600081548092919061053d906112a4565b919050555050565b60026020528060005260406000206000915090505481565b60006105a06040518060400160405280601c81526020017f57652068617665206120746f74616c206f6620256420776176657321000000008152506000546109b0565b600054905090565b60036020528060005260406000206000915090505481565b60606004805480602002602001604051908101604052809291908181526020016000905b8282101561070857838290600052602060002090600302016040518060600160405290816000820160009054906101000a900473ffffffffffffffffffffffffffffffffffffffff1673ffffffffffffffffffffffffffffffffffffffff1673ffffffffffffffffffffffffffffffffffffffff16815260200160018201805461066d90611241565b80601f016020809104026020016040519081016040528092919081815260200182805461069990611241565b80156106e65780601f106106bb576101008083540402835291602001916106e6565b820191906000526020600020905b8154815290600101906020018083116106c957829003601f168201915b50505050508152602001600282015481525050815260200190600101906105e4565b50505050905090565b60006107926040518060400160405280601581526020017f2573206861732073656e742025732077617665732e000000000000000000000081525083600260008673ffffffffffffffffffffffffffffffffffffffff1673ffffffffffffffffffffffffffffffffffffffff16815260200190815260200160002054610a4c565b600260008373ffffffffffffffffffffffffffffffffffffffff1673ffffffffffffffffffffffffffffffffffffffff168152602001908152602001600020549050919050565b61086f816040516024016107ed9190610ee8565b6040516020818303038152906040527f41304fac000000000000000000000000000000000000000000000000000000007bffffffffffffffffffffffffffffffffffffffffffffffffffffffff19166020820180517bffffffffffffffffffffffffffffffffffffffffffffffffffffffff8381831617835250505050610aeb565b50565b61090a8282604051602401610888929190610f0a565b6040516020818303038152906040527f319af333000000000000000000000000000000000000000000000000000000007bffffffffffffffffffffffffffffffffffffffffffffffffffffffff19166020820180517bffffffffffffffffffffffffffffffffffffffffffffffffffffffff8381831617835250505050610aeb565b5050565b6109aa848484846040516024016109289493929190610f3a565b6040516020818303038152906040527f8f624be9000000000000000000000000000000000000000000000000000000007bffffffffffffffffffffffffffffffffffffffffffffffffffffffff19166020820180517bffffffffffffffffffffffffffffffffffffffffffffffffffffffff8381831617835250505050610aeb565b50505050565b610a4882826040516024016109c6929190610fcb565b6040516020818303038152906040527f9710a9d0000000000000000000000000000000000000000000000000000000007bffffffffffffffffffffffffffffffffffffffffffffffffffffffff19166020820180517bffffffffffffffffffffffffffffffffffffffffffffffffffffffff8381831617835250505050610aeb565b5050565b610ae6838383604051602401610a6493929190610f8d565b6040516020818303038152906040527f07c81217000000000000000000000000000000000000000000000000000000007bffffffffffffffffffffffffffffffffffffffffffffffffffffffff19166020820180517bffffffffffffffffffffffffffffffffffffffffffffffffffffffff8381831617835250505050610aeb565b505050565b60008151905060006a636f6e736f6c652e6c6f679050602083016000808483855afa5050505050565b828054610b2090611241565b90600052602060002090601f016020900481019282610b425760008555610b89565b82601f10610b5b57805160ff1916838001178555610b89565b82800160010185558215610b89579182015b82811115610b88578251825591602001919060010190610b6d565b5b509050610b969190610b9a565b5090565b5b80821115610bb3576000816000905550600101610b9b565b5090565b6000610bca610bc5846110cb565b6110a6565b905082815260208101848484011115610be257600080fd5b610bed8482856111ff565b509392505050565b600081359050610c04816114b5565b92915050565b600082601f830112610c1b57600080fd5b8135610c2b848260208601610bb7565b91505092915050565b600060208284031215610c4657600080fd5b6000610c5484828501610bf5565b91505092915050565b600060208284031215610c6f57600080fd5b600082013567ffffffffffffffff811115610c8957600080fd5b610c9584828501610c0a565b91505092915050565b6000610caa8383610e43565b905092915050565b610cbb816111c3565b82525050565b610cca816111c3565b82525050565b6000610cdb8261110c565b610ce5818561112f565b935083602082028501610cf7856110fc565b8060005b85811015610d335784840389528151610d148582610c9e565b9450610d1f83611122565b925060208a01995050600181019050610cfb565b50829750879550505050505092915050565b6000610d5082611117565b610d5a818561114b565b9350610d6a81856020860161120e565b610d73816113da565b840191505092915050565b6000610d8982611117565b610d93818561115c565b9350610da381856020860161120e565b610dac816113da565b840191505092915050565b6000610dc460118361115c565b9150610dcf826113eb565b602082019050919050565b6000610de760348361115c565b9150610df282611414565b604082019050919050565b6000610e0a60278361115c565b9150610e1582611463565b604082019050919050565b6000610e2d600083611140565b9150610e38826114b2565b600082019050919050565b6000606083016000830151610e5b6000860182610cb2565b5060208301518482036020860152610e738282610d45565b9150506040830151610e886040860182610e93565b508091505092915050565b610e9c816111f5565b82525050565b610eab816111f5565b82525050565b6000610ebc82610e20565b9150819050919050565b60006020820190508181036000830152610ee08184610cd0565b905092915050565b60006020820190508181036000830152610f028184610d7e565b905092915050565b60006040820190508181036000830152610f248185610d7e565b9050610f336020830184610cc1565b9392505050565b60006080820190508181036000830152610f548187610d7e565b9050610f636020830186610cc1565b8181036040830152610f758185610d7e565b9050610f846060830184610ea2565b95945050505050565b60006060820190508181036000830152610fa78186610d7e565b9050610fb66020830185610cc1565b610fc36040830184610ea2565b949350505050565b60006040820190508181036000830152610fe58185610d7e565b9050610ff46020830184610ea2565b9392505050565b6000602082019050818103600083015261101481610db7565b9050919050565b6000602082019050818103600083015261103481610dda565b9050919050565b6000602082019050818103600083015261105481610dfd565b9050919050565b60006020820190506110706000830184610ea2565b92915050565b600060408201905061108b6000830185610ea2565b818103602083015261109d8184610d7e565b90509392505050565b60006110b06110c1565b90506110bc8282611273565b919050565b6000604051905090565b600067ffffffffffffffff8211156110e6576110e56113ab565b5b6110ef826113da565b9050602081019050919050565b6000819050602082019050919050565b600081519050919050565b600081519050919050565b6000602082019050919050565b600082825260208201905092915050565b600081905092915050565b600082825260208201905092915050565b600082825260208201905092915050565b6000611178826111f5565b9150611183836111f5565b9250827fffffffffffffffffffffffffffffffffffffffffffffffffffffffffffffffff038211156111b8576111b761131e565b5b828201905092915050565b60006111ce826111d5565b9050919050565b600073ffffffffffffffffffffffffffffffffffffffff82169050919050565b6000819050919050565b82818337600083830152505050565b60005b8381101561122c578082015181840152602081019050611211565b8381111561123b576000848401525b50505050565b6000600282049050600182168061125957607f821691505b6020821081141561126d5761126c61137c565b5b50919050565b61127c826113da565b810181811067ffffffffffffffff8211171561129b5761129a6113ab565b5b80604052505050565b60006112af826111f5565b91507fffffffffffffffffffffffffffffffffffffffffffffffffffffffffffffffff8214156112e2576112e161131e565b5b600182019050919050565b60006112f8826111f5565b9150611303836111f5565b9250826113135761131261134d565b5b828206905092915050565b7f4e487b7100000000000000000000000000000000000000000000000000000000600052601160045260246000fd5b7f4e487b7100000000000000000000000000000000000000000000000000000000600052601260045260246000fd5b7f4e487b7100000000000000000000000000000000000000000000000000000000600052602260045260246000fd5b7f4e487b7100000000000000000000000000000000000000000000000000000000600052604160045260246000fd5b6000601f19601f8301169050919050565b7f576169742031356d6e20706c656173652e000000000000000000000000000000600082015250565b7f547279696e6720746f207769746864726177206d6f7265206d6f6e657920746860008201527f616e2074686520636f6e7472616374206861732e000000000000000000000000602082015250565b7f4661696c656420746f207769746864726177206d6f6e65792066726f6d20636f60008201527f6e74726163742e00000000000000000000000000000000000000000000000000602082015250565b50565b6114be816111c3565b81146114c957600080fd5b5056fe2d20257320686173207761766564200a4d6573736167653a2025730a52616e646f6d20233a202573a2646970667358221220518e5e1644909423c989b755ad4b755bdde6df9b5c248efe9580c4484940538c64736f6c63430008040033596f20796f2c204920616d206120636f6e747261637420616e64204920616d20736d617274",
  "linkReferences": {},
  "deployedLinkReferences": {}
}