{
  "_format": "hh-sol-artifact-1",
  "contractName": "WavePortal",
  "sourceName": "contracts/WavePortal.sol",
  "abi": [
    {
      "inputs": [],
      "stateMutability": "payable",
      "type": "constructor"
    },
    {
      "anonymous": false,
      "inputs": [
        {
          "indexed": true,
          "internalType": "address",
          "name": "from",
          "type": "address"
        },
        {
          "indexed": false,
          "internalType": "uint256",
          "name": "timestamp",
          "type": "uint256"
        },
        {
          "indexed": false,
          "internalType": "string",
          "name": "message",
          "type": "string"
        }
      ],
      "name": "NewWave",
      "type": "event"
    },
    {
      "inputs": [],
      "name": "getAllWaves",
      "outputs": [
        {
          "components": [
            {
              "internalType": "address",
              "name": "waver",
              "type": "address"
            },
            {
              "internalType": "string",
              "name": "message",
              "type": "string"
            },
            {
              "internalType": "uint256",
              "name": "timestamp",
              "type": "uint256"
            }
          ],
          "internalType": "struct WavePortal.Wave[]",
          "name": "",
          "type": "tuple[]"
        }
      ],
      "stateMutability": "view",
      "type": "function"
    },
    {
      "inputs": [],
      "name": "getTotalWaves",
      "outputs": [
        {
          "internalType": "uint256",
          "name": "",
          "type": "uint256"
        }
      ],
      "stateMutability": "view",
      "type": "function"
    },
    {
      "inputs": [
        {
          "internalType": "address",
          "name": "sender",
          "type": "address"
        }
      ],
      "name": "getTotalWavesBySender",
      "outputs": [
        {
          "internalType": "uint256",
          "name": "",
          "type": "uint256"
        }
      ],
      "stateMutability": "view",
      "type": "function"
    },
    {
      "inputs": [
        {
          "internalType": "address",
          "name": "",
          "type": "address"
        }
      ],
      "name": "senderWavesCounter",
      "outputs": [
        {
          "internalType": "uint256",
          "name": "",
          "type": "uint256"
        }
      ],
      "stateMutability": "view",
      "type": "function"
    },
    {
      "inputs": [
        {
          "internalType": "string",
          "name": "_message",
          "type": "string"
        }
      ],
      "name": "wave",
      "outputs": [],
      "stateMutability": "nonpayable",
      "type": "function"
    }
  ],
  "bytecode": "0x608060405262000033604051806060016040528060258152602001620013b6602591396200003960201b620006591760201c565b620001cd565b620000d98160405160240162000050919062000146565b6040516020818303038152906040527f41304fac000000000000000000000000000000000000000000000000000000007bffffffffffffffffffffffffffffffffffffffffffffffffffffffff19166020820180517bffffffffffffffffffffffffffffffffffffffffffffffffffffffff8381831617835250505050620000dc60201b60201c565b50565b60008151905060006a636f6e736f6c652e6c6f679050602083016000808483855afa5050505050565b600062000112826200016a565b6200011e818562000175565b93506200013081856020860162000186565b6200013b81620001bc565b840191505092915050565b6000602082019050818103600083015262000162818462000105565b905092915050565b600081519050919050565b600082825260208201905092915050565b60005b83811015620001a657808201518184015260208101905062000189565b83811115620001b6576000848401525b50505050565b6000601f19601f8301169050919050565b6111d980620001dd6000396000f3fe608060405234801561001057600080fd5b50600436106100575760003560e01c8063449d46c01461005c578063478100b1146100785780639a2cdc08146100a8578063bd43a908146100c6578063d36b4109146100e4575b600080fd5b61007660048036038101906100719190610a3e565b610114565b005b610092600480360381019061008d9190610a15565b6103dd565b60405161009f9190610dbb565b60405180910390f35b6100b06103f5565b6040516100bd9190610dbb565b60405180910390f35b6100ce610440565b6040516100db9190610c84565b60405180910390f35b6100fe60048036038101906100f99190610a15565b610591565b60405161010b9190610dbb565b60405180910390f35b60016000808282546101269190610ecd565b9250508190555061016d6040518060400160405280601b81526020017f25732068617320776176656420772f206d6573736167653a202573000000000081525033836106f2565b600260405180606001604052803373ffffffffffffffffffffffffffffffffffffffff16815260200183815260200142815250908060018154018082558091505060019003906000526020600020906003020160009091909190915060008201518160000160006101000a81548173ffffffffffffffffffffffffffffffffffffffff021916908373ffffffffffffffffffffffffffffffffffffffff160217905550602082015181600101908051906020019061022c9291906108f5565b506040820151816002015550503373ffffffffffffffffffffffffffffffffffffffff167f5f7e16dc676677766a70e9c5628aa6c54ddb8b6e5188e2ae1e1f17f1ffbea7164283604051610281929190610dd6565b60405180910390a26000655af3107a40009050478111156102d7576040517f08c379a00000000000000000000000000000000000000000000000000000000081526004016102ce90610d7b565b60405180910390fd5b60003373ffffffffffffffffffffffffffffffffffffffff16826040516102fd90610c6f565b60006040518083038185875af1925050503d806000811461033a576040519150601f19603f3d011682016040523d82523d6000602084013e61033f565b606091505b5050905080610383576040517f08c379a000000000000000000000000000000000000000000000000000000000815260040161037a90610d9b565b60405180910390fd5b600160003373ffffffffffffffffffffffffffffffffffffffff1673ffffffffffffffffffffffffffffffffffffffff16815260200190815260200160002060008154809291906103d390611004565b9190505550505050565b60016020528060005260406000206000915090505481565b60006104386040518060400160405280601c81526020017f57652068617665206120746f74616c206f662025642077617665732100000000815250600054610791565b600054905090565b60606002805480602002602001604051908101604052809291908181526020016000905b8282101561058857838290600052602060002090600302016040518060600160405290816000820160009054906101000a900473ffffffffffffffffffffffffffffffffffffffff1673ffffffffffffffffffffffffffffffffffffffff1673ffffffffffffffffffffffffffffffffffffffff1681526020016001820180546104ed90610fa1565b80601f016020809104026020016040519081016040528092919081815260200182805461051990610fa1565b80156105665780601f1061053b57610100808354040283529160200191610566565b820191906000526020600020905b81548152906001019060200180831161054957829003601f168201915b5050505050815260200160028201548152505081526020019060010190610464565b50505050905090565b60006106126040518060400160405280601581526020017f2573206861732073656e742025732077617665732e000000000000000000000081525083600160008673ffffffffffffffffffffffffffffffffffffffff1673ffffffffffffffffffffffffffffffffffffffff1681526020019081526020016000205461082d565b600160008373ffffffffffffffffffffffffffffffffffffffff1673ffffffffffffffffffffffffffffffffffffffff168152602001908152602001600020549050919050565b6106ef8160405160240161066d9190610ca6565b6040516020818303038152906040527f41304fac000000000000000000000000000000000000000000000000000000007bffffffffffffffffffffffffffffffffffffffffffffffffffffffff19166020820180517bffffffffffffffffffffffffffffffffffffffffffffffffffffffff83818316178352505050506108cc565b50565b61078c83838360405160240161070a93929190610cc8565b6040516020818303038152906040527fe0e9ad4f000000000000000000000000000000000000000000000000000000007bffffffffffffffffffffffffffffffffffffffffffffffffffffffff19166020820180517bffffffffffffffffffffffffffffffffffffffffffffffffffffffff83818316178352505050506108cc565b505050565b61082982826040516024016107a7929190610d4b565b6040516020818303038152906040527f9710a9d0000000000000000000000000000000000000000000000000000000007bffffffffffffffffffffffffffffffffffffffffffffffffffffffff19166020820180517bffffffffffffffffffffffffffffffffffffffffffffffffffffffff83818316178352505050506108cc565b5050565b6108c783838360405160240161084593929190610d0d565b6040516020818303038152906040527f07c81217000000000000000000000000000000000000000000000000000000007bffffffffffffffffffffffffffffffffffffffffffffffffffffffff19166020820180517bffffffffffffffffffffffffffffffffffffffffffffffffffffffff83818316178352505050506108cc565b505050565b60008151905060006a636f6e736f6c652e6c6f679050602083016000808483855afa5050505050565b82805461090190610fa1565b90600052602060002090601f016020900481019282610923576000855561096a565b82601f1061093c57805160ff191683800117855561096a565b8280016001018555821561096a579182015b8281111561096957825182559160200191906001019061094e565b5b509050610977919061097b565b5090565b5b8082111561099457600081600090555060010161097c565b5090565b60006109ab6109a684610e2b565b610e06565b9050828152602081018484840111156109c357600080fd5b6109ce848285610f5f565b509392505050565b6000813590506109e58161118c565b92915050565b600082601f8301126109fc57600080fd5b8135610a0c848260208601610998565b91505092915050565b600060208284031215610a2757600080fd5b6000610a35848285016109d6565b91505092915050565b600060208284031215610a5057600080fd5b600082013567ffffffffffffffff811115610a6a57600080fd5b610a76848285016109eb565b91505092915050565b6000610a8b8383610c01565b905092915050565b610a9c81610f23565b82525050565b610aab81610f23565b82525050565b6000610abc82610e6c565b610ac68185610e8f565b935083602082028501610ad885610e5c565b8060005b85811015610b145784840389528151610af58582610a7f565b9450610b0083610e82565b925060208a01995050600181019050610adc565b50829750879550505050505092915050565b6000610b3182610e77565b610b3b8185610eab565b9350610b4b818560208601610f6e565b610b54816110da565b840191505092915050565b6000610b6a82610e77565b610b748185610ebc565b9350610b84818560208601610f6e565b610b8d816110da565b840191505092915050565b6000610ba5603483610ebc565b9150610bb0826110eb565b604082019050919050565b6000610bc8602783610ebc565b9150610bd38261113a565b604082019050919050565b6000610beb600083610ea0565b9150610bf682611189565b600082019050919050565b6000606083016000830151610c196000860182610a93565b5060208301518482036020860152610c318282610b26565b9150506040830151610c466040860182610c51565b508091505092915050565b610c5a81610f55565b82525050565b610c6981610f55565b82525050565b6000610c7a82610bde565b9150819050919050565b60006020820190508181036000830152610c9e8184610ab1565b905092915050565b60006020820190508181036000830152610cc08184610b5f565b905092915050565b60006060820190508181036000830152610ce28186610b5f565b9050610cf16020830185610aa2565b8181036040830152610d038184610b5f565b9050949350505050565b60006060820190508181036000830152610d278186610b5f565b9050610d366020830185610aa2565b610d436040830184610c60565b949350505050565b60006040820190508181036000830152610d658185610b5f565b9050610d746020830184610c60565b9392505050565b60006020820190508181036000830152610d9481610b98565b9050919050565b60006020820190508181036000830152610db481610bbb565b9050919050565b6000602082019050610dd06000830184610c60565b92915050565b6000604082019050610deb6000830185610c60565b8181036020830152610dfd8184610b5f565b90509392505050565b6000610e10610e21565b9050610e1c8282610fd3565b919050565b6000604051905090565b600067ffffffffffffffff821115610e4657610e456110ab565b5b610e4f826110da565b9050602081019050919050565b6000819050602082019050919050565b600081519050919050565b600081519050919050565b6000602082019050919050565b600082825260208201905092915050565b600081905092915050565b600082825260208201905092915050565b600082825260208201905092915050565b6000610ed882610f55565b9150610ee383610f55565b9250827fffffffffffffffffffffffffffffffffffffffffffffffffffffffffffffffff03821115610f1857610f1761104d565b5b828201905092915050565b6000610f2e82610f35565b9050919050565b600073ffffffffffffffffffffffffffffffffffffffff82169050919050565b6000819050919050565b82818337600083830152505050565b60005b83811015610f8c578082015181840152602081019050610f71565b83811115610f9b576000848401525b50505050565b60006002820490506001821680610fb957607f821691505b60208210811415610fcd57610fcc61107c565b5b50919050565b610fdc826110da565b810181811067ffffffffffffffff82111715610ffb57610ffa6110ab565b5b80604052505050565b600061100f82610f55565b91507fffffffffffffffffffffffffffffffffffffffffffffffffffffffffffffffff8214156110425761104161104d565b5b600182019050919050565b7f4e487b7100000000000000000000000000000000000000000000000000000000600052601160045260246000fd5b7f4e487b7100000000000000000000000000000000000000000000000000000000600052602260045260246000fd5b7f4e487b7100000000000000000000000000000000000000000000000000000000600052604160045260246000fd5b6000601f19601f8301169050919050565b7f547279696e6720746f207769746864726177206d6f7265206d6f6e657920746860008201527f616e2074686520636f6e7472616374206861732e000000000000000000000000602082015250565b7f4661696c656420746f207769746864726177206d6f6e65792066726f6d20636f60008201527f6e74726163742e00000000000000000000000000000000000000000000000000602082015250565b50565b61119581610f23565b81146111a057600080fd5b5056fea2646970667358221220adf3621683652d8c29bcf8e638e79398c511ab6ea2956d6af0637224fa33e1fd64736f6c63430008040033596f20796f2c204920616d206120636f6e747261637420616e64204920616d20736d617274",
  "linkReferences": {},
  "deployedLinkReferences": {}
}