{
  "_format": "hh-sol-artifact-1",
  "contractName": "WavePortal",
  "sourceName": "contracts/WavePortal.sol",
  "abi": [
    {
      "inputs": [],
      "stateMutability": "nonpayable",
      "type": "constructor"
    },
    {
      "inputs": [],
      "name": "getTotalWaves",
      "outputs": [
        {
          "internalType": "uint256",
          "name": "",
          "type": "uint256"
        }
      ],
      "stateMutability": "view",
      "type": "function"
    },
    {
      "inputs": [
        {
          "internalType": "address",
          "name": "sender",
          "type": "address"
        }
      ],
      "name": "getTotalWavesBySender",
      "outputs": [
        {
          "internalType": "uint256",
          "name": "",
          "type": "uint256"
        }
      ],
      "stateMutability": "view",
      "type": "function"
    },
    {
      "inputs": [
        {
          "internalType": "address",
          "name": "",
          "type": "address"
        }
      ],
      "name": "senderWavesCounter",
      "outputs": [
        {
          "internalType": "uint256",
          "name": "",
          "type": "uint256"
        }
      ],
      "stateMutability": "view",
      "type": "function"
    },
    {
      "inputs": [],
      "name": "wave",
      "outputs": [],
      "stateMutability": "nonpayable",
      "type": "function"
    }
  ],
  "bytecode": "0x608060405234801561001057600080fd5b5061003c604051806060016040528060258152602001610a466025913961004160201b6102b31760201c565b6101c4565b6100dd816040516024016100559190610142565b6040516020818303038152906040527f41304fac000000000000000000000000000000000000000000000000000000007bffffffffffffffffffffffffffffffffffffffffffffffffffffffff19166020820180517bffffffffffffffffffffffffffffffffffffffffffffffffffffffff83818316178352505050506100e060201b60201c565b50565b60008151905060006a636f6e736f6c652e6c6f679050602083016000808483855afa5050505050565b600061011482610164565b61011e818561016f565b935061012e818560208601610180565b610137816101b3565b840191505092915050565b6000602082019050818103600083015261015c8184610109565b905092915050565b600081519050919050565b600082825260208201905092915050565b60005b8381101561019e578082015181840152602081019050610183565b838111156101ad576000848401525b50505050565b6000601f19601f8301169050919050565b610873806101d36000396000f3fe608060405234801561001057600080fd5b506004361061004c5760003560e01c8063478100b1146100515780636fe15b44146100815780639a2cdc081461008b578063d36b4109146100a9575b600080fd5b61006b60048036038101906100669190610561565b6100d9565b60405161007891906106a1565b60405180910390f35b6100896100f1565b005b6100936101a0565b6040516100a091906106a1565b60405180910390f35b6100c360048036038101906100be9190610561565b6101eb565b6040516100d091906106a1565b60405180910390f35b60016020528060005260406000206000915090505481565b600160008082825461010391906106d8565b925050819055506101496040518060400160405280600d81526020017f25732068617320776176656421000000000000000000000000000000000000008152503361034c565b600160003373ffffffffffffffffffffffffffffffffffffffff1673ffffffffffffffffffffffffffffffffffffffff16815260200190815260200160002060008154809291906101999061079d565b9190505550565b60006101e36040518060400160405280601c81526020017f57652068617665206120746f74616c206f6620256420776176657321000000008152506000546103e8565b600054905090565b600061026c6040518060400160405280601581526020017f2573206861732073656e742025732077617665732e000000000000000000000081525083600160008673ffffffffffffffffffffffffffffffffffffffff1673ffffffffffffffffffffffffffffffffffffffff16815260200190815260200160002054610484565b600160008373ffffffffffffffffffffffffffffffffffffffff1673ffffffffffffffffffffffffffffffffffffffff168152602001908152602001600020549050919050565b610349816040516024016102c791906105e1565b6040516020818303038152906040527f41304fac000000000000000000000000000000000000000000000000000000007bffffffffffffffffffffffffffffffffffffffffffffffffffffffff19166020820180517bffffffffffffffffffffffffffffffffffffffffffffffffffffffff8381831617835250505050610523565b50565b6103e48282604051602401610362929190610603565b6040516020818303038152906040527f319af333000000000000000000000000000000000000000000000000000000007bffffffffffffffffffffffffffffffffffffffffffffffffffffffff19166020820180517bffffffffffffffffffffffffffffffffffffffffffffffffffffffff8381831617835250505050610523565b5050565b61048082826040516024016103fe929190610671565b6040516020818303038152906040527f9710a9d0000000000000000000000000000000000000000000000000000000007bffffffffffffffffffffffffffffffffffffffffffffffffffffffff19166020820180517bffffffffffffffffffffffffffffffffffffffffffffffffffffffff8381831617835250505050610523565b5050565b61051e83838360405160240161049c93929190610633565b6040516020818303038152906040527f07c81217000000000000000000000000000000000000000000000000000000007bffffffffffffffffffffffffffffffffffffffffffffffffffffffff19166020820180517bffffffffffffffffffffffffffffffffffffffffffffffffffffffff8381831617835250505050610523565b505050565b60008151905060006a636f6e736f6c652e6c6f679050602083016000808483855afa5050505050565b60008135905061055b81610826565b92915050565b60006020828403121561057357600080fd5b60006105818482850161054c565b91505092915050565b6105938161072e565b82525050565b60006105a4826106bc565b6105ae81856106c7565b93506105be81856020860161076a565b6105c781610815565b840191505092915050565b6105db81610760565b82525050565b600060208201905081810360008301526105fb8184610599565b905092915050565b6000604082019050818103600083015261061d8185610599565b905061062c602083018461058a565b9392505050565b6000606082019050818103600083015261064d8186610599565b905061065c602083018561058a565b61066960408301846105d2565b949350505050565b6000604082019050818103600083015261068b8185610599565b905061069a60208301846105d2565b9392505050565b60006020820190506106b660008301846105d2565b92915050565b600081519050919050565b600082825260208201905092915050565b60006106e382610760565b91506106ee83610760565b9250827fffffffffffffffffffffffffffffffffffffffffffffffffffffffffffffffff03821115610723576107226107e6565b5b828201905092915050565b600061073982610740565b9050919050565b600073ffffffffffffffffffffffffffffffffffffffff82169050919050565b6000819050919050565b60005b8381101561078857808201518184015260208101905061076d565b83811115610797576000848401525b50505050565b60006107a882610760565b91507fffffffffffffffffffffffffffffffffffffffffffffffffffffffffffffffff8214156107db576107da6107e6565b5b600182019050919050565b7f4e487b7100000000000000000000000000000000000000000000000000000000600052601160045260246000fd5b6000601f19601f8301169050919050565b61082f8161072e565b811461083a57600080fd5b5056fea26469706673582212201e808a4b6a0800209f03502d774906ab63001d95127c14cc26c86467a03bb1f464736f6c63430008040033596f20796f2c204920616d206120636f6e747261637420616e64204920616d20736d617274",
  "linkReferences": {},
  "deployedLinkReferences": {}
}