{
  "_format": "hh-sol-artifact-1",
  "contractName": "WavePortal",
  "sourceName": "contracts/WavePortal.sol",
  "abi": [
    {
      "inputs": [],
      "stateMutability": "nonpayable",
      "type": "constructor"
    },
    {
      "anonymous": false,
      "inputs": [
        {
          "indexed": true,
          "internalType": "address",
          "name": "from",
          "type": "address"
        },
        {
          "indexed": false,
          "internalType": "uint256",
          "name": "timestamp",
          "type": "uint256"
        },
        {
          "indexed": false,
          "internalType": "string",
          "name": "message",
          "type": "string"
        }
      ],
      "name": "NewWave",
      "type": "event"
    },
    {
      "inputs": [],
      "name": "getAllWaves",
      "outputs": [
        {
          "components": [
            {
              "internalType": "address",
              "name": "waver",
              "type": "address"
            },
            {
              "internalType": "string",
              "name": "message",
              "type": "string"
            },
            {
              "internalType": "uint256",
              "name": "timestamp",
              "type": "uint256"
            }
          ],
          "internalType": "struct WavePortal.Wave[]",
          "name": "",
          "type": "tuple[]"
        }
      ],
      "stateMutability": "view",
      "type": "function"
    },
    {
      "inputs": [],
      "name": "getTotalWaves",
      "outputs": [
        {
          "internalType": "uint256",
          "name": "",
          "type": "uint256"
        }
      ],
      "stateMutability": "view",
      "type": "function"
    },
    {
      "inputs": [
        {
          "internalType": "address",
          "name": "sender",
          "type": "address"
        }
      ],
      "name": "getTotalWavesBySender",
      "outputs": [
        {
          "internalType": "uint256",
          "name": "",
          "type": "uint256"
        }
      ],
      "stateMutability": "view",
      "type": "function"
    },
    {
      "inputs": [
        {
          "internalType": "address",
          "name": "",
          "type": "address"
        }
      ],
      "name": "senderWavesCounter",
      "outputs": [
        {
          "internalType": "uint256",
          "name": "",
          "type": "uint256"
        }
      ],
      "stateMutability": "view",
      "type": "function"
    },
    {
      "inputs": [
        {
          "internalType": "string",
          "name": "_message",
          "type": "string"
        }
      ],
      "name": "wave",
      "outputs": [],
      "stateMutability": "nonpayable",
      "type": "function"
    }
  ],
  "bytecode": "0x60806040523480156200001157600080fd5b50620000416040518060600160405280602581526020016200115e602591396200004760201b6200055d1760201c565b620001db565b620000e7816040516024016200005e919062000154565b6040516020818303038152906040527f41304fac000000000000000000000000000000000000000000000000000000007bffffffffffffffffffffffffffffffffffffffffffffffffffffffff19166020820180517bffffffffffffffffffffffffffffffffffffffffffffffffffffffff8381831617835250505050620000ea60201b60201c565b50565b60008151905060006a636f6e736f6c652e6c6f679050602083016000808483855afa5050505050565b6000620001208262000178565b6200012c818562000183565b93506200013e81856020860162000194565b6200014981620001ca565b840191505092915050565b6000602082019050818103600083015262000170818462000113565b905092915050565b600081519050919050565b600082825260208201905092915050565b60005b83811015620001b457808201518184015260208101905062000197565b83811115620001c4576000848401525b50505050565b6000601f19601f8301169050919050565b610f7380620001eb6000396000f3fe608060405234801561001057600080fd5b50600436106100575760003560e01c8063449d46c01461005c578063478100b1146100785780639a2cdc08146100a8578063bd43a908146100c6578063d36b4109146100e4575b600080fd5b61007660048036038101906100719190610942565b610114565b005b610092600480360381019061008d9190610919565b6102e1565b60405161009f9190610c01565b60405180910390f35b6100b06102f9565b6040516100bd9190610c01565b60405180910390f35b6100ce610344565b6040516100db9190610b0a565b60405180910390f35b6100fe60048036038101906100f99190610919565b610495565b60405161010b9190610c01565b60405180910390f35b60016000808282546101269190610d08565b9250508190555061016d6040518060400160405280601b81526020017f25732068617320776176656420772f206d6573736167653a202573000000000081525033836105f6565b600260405180606001604052803373ffffffffffffffffffffffffffffffffffffffff16815260200183815260200142815250908060018154018082558091505060019003906000526020600020906003020160009091909190915060008201518160000160006101000a81548173ffffffffffffffffffffffffffffffffffffffff021916908373ffffffffffffffffffffffffffffffffffffffff160217905550602082015181600101908051906020019061022c9291906107f9565b506040820151816002015550503373ffffffffffffffffffffffffffffffffffffffff167f5f7e16dc676677766a70e9c5628aa6c54ddb8b6e5188e2ae1e1f17f1ffbea7164283604051610281929190610c1c565b60405180910390a2600160003373ffffffffffffffffffffffffffffffffffffffff1673ffffffffffffffffffffffffffffffffffffffff16815260200190815260200160002060008154809291906102d990610e3f565b919050555050565b60016020528060005260406000206000915090505481565b600061033c6040518060400160405280601c81526020017f57652068617665206120746f74616c206f662025642077617665732100000000815250600054610695565b600054905090565b60606002805480602002602001604051908101604052809291908181526020016000905b8282101561048c57838290600052602060002090600302016040518060600160405290816000820160009054906101000a900473ffffffffffffffffffffffffffffffffffffffff1673ffffffffffffffffffffffffffffffffffffffff1673ffffffffffffffffffffffffffffffffffffffff1681526020016001820180546103f190610ddc565b80601f016020809104026020016040519081016040528092919081815260200182805461041d90610ddc565b801561046a5780601f1061043f5761010080835404028352916020019161046a565b820191906000526020600020905b81548152906001019060200180831161044d57829003601f168201915b5050505050815260200160028201548152505081526020019060010190610368565b50505050905090565b60006105166040518060400160405280601581526020017f2573206861732073656e742025732077617665732e000000000000000000000081525083600160008673ffffffffffffffffffffffffffffffffffffffff1673ffffffffffffffffffffffffffffffffffffffff16815260200190815260200160002054610731565b600160008373ffffffffffffffffffffffffffffffffffffffff1673ffffffffffffffffffffffffffffffffffffffff168152602001908152602001600020549050919050565b6105f3816040516024016105719190610b2c565b6040516020818303038152906040527f41304fac000000000000000000000000000000000000000000000000000000007bffffffffffffffffffffffffffffffffffffffffffffffffffffffff19166020820180517bffffffffffffffffffffffffffffffffffffffffffffffffffffffff83818316178352505050506107d0565b50565b61069083838360405160240161060e93929190610b4e565b6040516020818303038152906040527fe0e9ad4f000000000000000000000000000000000000000000000000000000007bffffffffffffffffffffffffffffffffffffffffffffffffffffffff19166020820180517bffffffffffffffffffffffffffffffffffffffffffffffffffffffff83818316178352505050506107d0565b505050565b61072d82826040516024016106ab929190610bd1565b6040516020818303038152906040527f9710a9d0000000000000000000000000000000000000000000000000000000007bffffffffffffffffffffffffffffffffffffffffffffffffffffffff19166020820180517bffffffffffffffffffffffffffffffffffffffffffffffffffffffff83818316178352505050506107d0565b5050565b6107cb83838360405160240161074993929190610b93565b6040516020818303038152906040527f07c81217000000000000000000000000000000000000000000000000000000007bffffffffffffffffffffffffffffffffffffffffffffffffffffffff19166020820180517bffffffffffffffffffffffffffffffffffffffffffffffffffffffff83818316178352505050506107d0565b505050565b60008151905060006a636f6e736f6c652e6c6f679050602083016000808483855afa5050505050565b82805461080590610ddc565b90600052602060002090601f016020900481019282610827576000855561086e565b82601f1061084057805160ff191683800117855561086e565b8280016001018555821561086e579182015b8281111561086d578251825591602001919060010190610852565b5b50905061087b919061087f565b5090565b5b80821115610898576000816000905550600101610880565b5090565b60006108af6108aa84610c71565b610c4c565b9050828152602081018484840111156108c757600080fd5b6108d2848285610d9a565b509392505050565b6000813590506108e981610f26565b92915050565b600082601f83011261090057600080fd5b813561091084826020860161089c565b91505092915050565b60006020828403121561092b57600080fd5b6000610939848285016108da565b91505092915050565b60006020828403121561095457600080fd5b600082013567ffffffffffffffff81111561096e57600080fd5b61097a848285016108ef565b91505092915050565b600061098f8383610a9c565b905092915050565b6109a081610d5e565b82525050565b6109af81610d5e565b82525050565b60006109c082610cb2565b6109ca8185610cd5565b9350836020820285016109dc85610ca2565b8060005b85811015610a1857848403895281516109f98582610983565b9450610a0483610cc8565b925060208a019950506001810190506109e0565b50829750879550505050505092915050565b6000610a3582610cbd565b610a3f8185610ce6565b9350610a4f818560208601610da9565b610a5881610f15565b840191505092915050565b6000610a6e82610cbd565b610a788185610cf7565b9350610a88818560208601610da9565b610a9181610f15565b840191505092915050565b6000606083016000830151610ab46000860182610997565b5060208301518482036020860152610acc8282610a2a565b9150506040830151610ae16040860182610aec565b508091505092915050565b610af581610d90565b82525050565b610b0481610d90565b82525050565b60006020820190508181036000830152610b2481846109b5565b905092915050565b60006020820190508181036000830152610b468184610a63565b905092915050565b60006060820190508181036000830152610b688186610a63565b9050610b7760208301856109a6565b8181036040830152610b898184610a63565b9050949350505050565b60006060820190508181036000830152610bad8186610a63565b9050610bbc60208301856109a6565b610bc96040830184610afb565b949350505050565b60006040820190508181036000830152610beb8185610a63565b9050610bfa6020830184610afb565b9392505050565b6000602082019050610c166000830184610afb565b92915050565b6000604082019050610c316000830185610afb565b8181036020830152610c438184610a63565b90509392505050565b6000610c56610c67565b9050610c628282610e0e565b919050565b6000604051905090565b600067ffffffffffffffff821115610c8c57610c8b610ee6565b5b610c9582610f15565b9050602081019050919050565b6000819050602082019050919050565b600081519050919050565b600081519050919050565b6000602082019050919050565b600082825260208201905092915050565b600082825260208201905092915050565b600082825260208201905092915050565b6000610d1382610d90565b9150610d1e83610d90565b9250827fffffffffffffffffffffffffffffffffffffffffffffffffffffffffffffffff03821115610d5357610d52610e88565b5b828201905092915050565b6000610d6982610d70565b9050919050565b600073ffffffffffffffffffffffffffffffffffffffff82169050919050565b6000819050919050565b82818337600083830152505050565b60005b83811015610dc7578082015181840152602081019050610dac565b83811115610dd6576000848401525b50505050565b60006002820490506001821680610df457607f821691505b60208210811415610e0857610e07610eb7565b5b50919050565b610e1782610f15565b810181811067ffffffffffffffff82111715610e3657610e35610ee6565b5b80604052505050565b6000610e4a82610d90565b91507fffffffffffffffffffffffffffffffffffffffffffffffffffffffffffffffff821415610e7d57610e7c610e88565b5b600182019050919050565b7f4e487b7100000000000000000000000000000000000000000000000000000000600052601160045260246000fd5b7f4e487b7100000000000000000000000000000000000000000000000000000000600052602260045260246000fd5b7f4e487b7100000000000000000000000000000000000000000000000000000000600052604160045260246000fd5b6000601f19601f8301169050919050565b610f2f81610d5e565b8114610f3a57600080fd5b5056fea26469706673582212200c42eb88113c4ceffe883d7b243ac5acb3592b8ce1dfa02d784f478ddd358c8e64736f6c63430008040033596f20796f2c204920616d206120636f6e747261637420616e64204920616d20736d617274",
  "linkReferences": {},
  "deployedLinkReferences": {}
}